:060000000A128A113D2ED8
:100C7A00FC01FD01BB01BC01BD01BE0183010A12D9
:100C8A008A11BC2EFC01FD0171087D02031D4F2E45
:100C9A0070087C0203180800FB3081000B1D532EDC
:100CAA000B11FC0A0319FD0A492EB5260A128A11EC
:100CBA000310210D220DA800A808031D692EF801B2
:100CCA00F901FA01FB010800B5260A128A11173048
:100CDA000310A20CA10CA00CFF3E031D6D2E2008D0
:100CEA00A300F917FA017808A4007908A5007A0880
:100CFA00A6008E30A701A802A81F902E2808803AC5
:100D0A008F3E031C642E0310A70CA60CA50CA40C82
:100D1A00A80F882E9E2E183028020318642EA808C1
:100D2A0003199E2E0310A40DA50DA60DA70DA80349
:100D3A00942E23080319AC2EA409A509A609A7090C
:100D4A00A40A0319A50A0319A60A0319A70A270858
:100D5A00FB002608FA002508F9002408F800080014
:100D6A007808A0007908A1007A08A2000800831672
:100D7A0081010B111F08F03907389F008510831273
:100D8A0085148316880183128801BB01BC0183166E
:100D9A000530071583129700950196010C118316E9
:100DAA008710831287108316071583128714F001A0
:100DBA00F00AF1010A128A1147260A128A1114301E
:100DCA008710F000F1010A128A1147260A128A11C5
:100DDA000C1DED2E04300C119700BD01BE010C193B
:100DEA00022F0230F000F1010A128A1147260A1274
:100DFA008A11BD0A0319BE0AF42E053097000C1198
:100E0A003E08AA003D08A9000A128A1139270A12C7
:100E1A008A112908AF002A08B0002B08B100143043
:100E2A00AC00AE30AD003E30AE000A128A1149273E
:100E3A000A128A112C08F8002D08F9002E08FA0067
:100E4A000A128A115A260A128A117908BC007808ED
:100E5A00BB008800E830F0000330F1000A128A1162
:100E6A0047260A128A11DA2E2908F0002A08F10008
:100E7A008E30F201F300F401B8277008A900710856
:100E8A00AA007208AB0008002C08B2002D08B300B3
:100E9A002E08B4000310330D340DB500B508031D38
:100EAA005A2FAC01AD01AE0108002F08B20030087C
:100EBA00B3003108B4000310330D340DBA00BA0878
:100ECA00031D6B2FAC01AD01AE0108003A087B3E51
:100EDA00B5072E08BA003108BA068030BA050730BD
:100EEA00AD17B017B101B601B701B801B9002C1C92
:100EFA00862F2F08F6270A128A110318310A031DB2
:100F0A00B8070310AE0CAD0CAC0C0310AF0DB00D4E
:100F1A00B10DB90B7C2F0930B9002C1C9C2F2F085E
:100F2A00F6270A128A110318310A031DB80703109B
:100F3A00AE0CAD0CAC0C0310B80CB70CB60CB90B5C
:100F4A00922F3608F0003708F1003808F200350809
:100F5A00F3003A08F400B8277008AC007108AD0035
:100F6A007208AE00080073080319C02F72087104D2
:100F7A007004031DC92FF001F101F2010800F30A00
:100F8A000310F20CF10CF00CFE3072050319D82F85
:100F9A00C42FF30AF00A0319F10A0319F20A03101B
:100FAA00F20CF10CF00CFF3072050319E22FCE2F70
:100FBA00F3030310F00DF10DF20DF11FDD2F731C79
:100FCA00F1130310F30C7308F700F601F501750825
:100FDA00F0047608F1047708F2047408031DF21786
:100FEA000800B607300803110318300A031DB707B3
:060FFA003108031108009C
:00000001FF
