:060000000A128A111E2FF6
:100E3C00F601F70183010A128A11A62F83120313FC
:100E4C00071287160717871308008312031307125C
:100E5C0087120713871308008316031307128712D0
:100E6C0007138713881083120313071287120713B3
:100E7C0087130800831203130716871607178713A7
:100E8C007308F5007208F40001300310F50CF40C33
:100E9C00FF3E031D4B2F7408F0007508F1000A1279
:100EAC008A1182270A128A118312031307128712DE
:100EBC0007138713080083120313071287160717EB
:100ECC0087177308F5007208F40001300310F50C55
:100EDC00F40CFF3E031D6C2F7408F0007508F10034
:100EEC000A128A1182270A128A118312031307121B
:100EFC00871207138713080007308316031381002A
:100F0C000B11F601F7019A2F943083120313810011
:100F1C008F2F0B1D922F932F8F2F0B110130F60754
:100F2C000318F70A0030F70771087702031DA02F8A
:100F3C0070087602031CA32FA42F8A2FA52F08005C
:100F4C000A128A1132270A128A1183120313881487
:100F5C00AF2F8312031388146430F0000030F100BB
:100F6C000A128A1182270A128A118312031388101B
:100F7C000A128A1124270A128A116430F0000030F8
:100F8C00F1000A128A1182270A128A1183120313A2
:100F9C0088140A128A112B270A128A116430F00065
:100FAC000030F1000A128A1182270A128A11831268
:100FBC00031388105A30F2000030F3000A128A1121
:100FCC0040270A128A116430F0000030F1000A1236
:100FDC008A1182270A128A115A30F2000030F3006B
:100FEC000A128A1161270A128A11AF2FAF2F0A1227
:040FFC008A1100282E
:00000001FF
