:060000000A128A114A2DCC
:100A8E00871207130800FC01FD01BB01BC01BD016B
:100A9E00BE01BF01C001C101C20183010A128A1148
:100AAE001A2F831681010B11FC01FD0171087D02C5
:100ABE00031D632D70087C0203180800F2308312A8
:100ACE0081000B1D682D0B11FC0A0319FD0A5D2D0B
:100ADE0083160530071583129700950196010C11A8
:100AEE008316871083128710831607150712871235
:100AFE0007138713831207128712071387138316A0
:100B0E008813831288130800E6250A128A1103102F
:100B1E00210D220DA800A808031D9A2DF801F90138
:100B2E00FA01FB010800E6250A128A11173003109C
:100B3E00A20CA10CA00CFF3E031D9E2D2008A300AD
:100B4E00F917FA017808A4007908A5007A08A6001A
:100B5E008E30A701A802A81FC12D2808803A8F3E0B
:100B6E00031C952D0310A70CA60CA50CA40CA80F06
:100B7E00B92DCF2D183028020318952DA80803196A
:100B8E00CF2D0310A40DA50DA60DA70DA803C52DE1
:100B9E0023080319DD2DA409A509A609A709A40A8E
:100BAE000319A50A0319A60A0319A70A2708FB00A9
:100BBE002608FA002508F9002408F800080078082D
:100BCE00A0007908A1007A08A2000800071687176E
:100BDE007308F1007208F0002F260A128A115026AF
:100BEE000712871308008716071387177308F1007B
:100BFE00720848260A128A112F260A128A115026C6
:100C0E008712071387130800071687120717730832
:100C1E00F100720848260A128A112F260A128A112A
:100C2E00502607128712071308006430871607171D
:100C3E00F000F1012F260A128A11502614300713E4
:100C4E00F000F1012F260A128A115026071708000C
:100C5E0003308316031381000B11FC01FD01710893
:100C6E007D02031D3C2E70087C02031808005230D2
:100C7E00502681000B1D412E0B11FC0A0319FD0A93
:100C8E00362EF0000310F00DF10D0310F00DF10DE6
:100C9E0008008312031308002908F0002A08F10047
:100CAE008E30F201F300F401D2267008A90071080B
:100CBE00AA007208AB0008002C08B2002D08B30081
:100CCE002E08B4000310330D340DB500B508031D06
:100CDE00742EAC01AD01AE0108002F08B200300831
:100CEE00B3003108B4000310330D340DBA00BA0846
:100CFE00031D852EAC01AD01AE0108003A087B3E06
:100D0E00B5072E08BA003108BA068030BA0507308A
:100D1E00AD17B017B101B601B701B801B9002C1C5F
:100D2E00A02E2F0810270A128A110318310A031D4C
:100D3E00B8070310AE0CAD0CAC0C0310AF0DB00D1C
:100D4E00B10DB90B962E0930B9002C1CB62E2F08FA
:100D5E0010270A128A110318310A031DB80703104F
:100D6E00AE0CAD0CAC0C0310B80CB70CB60CB90B2A
:100D7E00AC2E3608F0003708F1003808F2003508BE
:100D8E00F3003A08F400D2267008AC007108AD00EA
:100D9E007208AE00080073080319DA2E7208710487
:100DAE007004031DE32EF001F101F2010800F30AB5
:100DBE000310F20CF10CF00CFE3072050319F22E3A
:100DCE00DE2EF30AF00A0319F10A0319F20A0310D0
:100DDE00F20CF10CF00CFF3072050319FC2EE82E0C
:100DEE00F3030310F00DF10DF20DF11FF72E731C2E
:100DFE00F1130310F30C7308F700F601F5017508F3
:100E0E00F0047608F1047708F2047408031DF21753
:100E1E000800B607300803110318300A031DB70780
:100E2E003108031108000A128A116F250A128A115D
:100E3E00831203130C118714F001F00AF1010A1248
:100E4E008A1158250A128A11831287100C1D2D2F14
:100E5E0004300C119700C101C201482F0530420227
:100E6E0078300319410203184A2F0230F000F101C5
:100E7E000A128A1158250A128A118312C10A0319FD
:100E8E00C20A0C1D352F053097000C114208AA001E
:100E9E004108A9000A128A1153260A128A1129083A
:100EAE00AF002A08B0002B08B1001430AC00AE30F1
:100EBE00AD003E30AE000A128A1163260A128A1164
:100ECE002C08F8002D08F9002E08FA000A128A11D3
:100EDE008B250A128A117908BE007808BD000030F1
:100EEE003E020E3003193D02031C9B2F0030881367
:100EFE003C02023003193B02031C8D2F0A128A1189
:100F0E001C260A128A11BF01C001952F0A128A11DE
:100F1E001C260A128A11BB0A0319BC0A0A128A116C
:100F2E001C260A128A11F72FBB01BC010A128A1164
:100F3E0047250A128A1190308817F0000130F1000F
:100F4E000A128A112F260A128A11003083120313F5
:100F5E003E02053003193D020318BF2F2C30F2005C
:100F6E000130F3000A128A11ED250A128A11EE2FB2
:100F7E0040083F04031DCE2F5A30F200F3010A122F
:100F8E008A110B260A128A11BF01BF0AED2F3F03E9
:100F9E004004031DDC2F8630F200F3010A128A1181
:100FAE00FA250A128A110230EA2F3F08023A40044B
:100FBE00031DEC2F5A30F200F3010A128A11FA25A2
:100FCE000A128A110330BF00ED2FBF01C00190300D
:100FDE00F0000130F1000A128A112F260A128A112E
:100FEE000A30F000F1010A128A112F260A128A1114
:020FFE001F2FA3
:00000001FF
