:060000000A128A11932F81
:100F260083010A128A11BB2F07308316031381002F
:100F36000B11F201F301AF2F9430831203138100DA
:100F4600A42F0B1DA72FA82FA42F0B110130F207DA
:100F56000318F30A0030F30771087302031DB52F57
:100F660070087202031CB82FB92F9F2FBA2F0800E2
:100F760083160313880107128712831203130811BD
:100F8600881107128712C72FC830F0000030F10011
:100F96000A128A1197270A128A1183120313081557
:100FA6008811C830F0000030F1000A128A11972724
:100FB6000A128A118312031308118811C830F0002F
:100FC6000030F1000A128A1197270A128A11831239
:100FD600031307168712C830F0000030F1000A121A
:100FE6008A1197270A128A1183120313071287128E
:0A0FF600C72FC72F0A128A11002826
:00000001FF
