:060000000A128A11EC2B2C
:1007BC008312031307128716071787130800831277
:1007CC00031307128712071387130800BD01BE011C
:1007DC00BF01C001C101C201C301C40183010A12DE
:1007EC008A113B2E831203132A08F0002B08F10008
:1007FC00F2018E30FC007C08F300F4010A128A111D
:10080C001A250A128A11700883120313AA007108A0
:10081C00AB007208AC00122C0800831203130716ED
:10082C008712071787137308F5007208F40002305B
:10083C00FF000310F40DF50DFF0B1F2C7408F000D6
:10084C007508F1000A128A117A240A128A1183128D
:10085C00031307128712071387130800831203135D
:10086C0007128716071387177308F5007208F40030
:10087C000230FF000310F40DF50DFF0B402C740833
:10088C00F0007508F1000A128A117A240A128A11F2
:10089C00831203130712871207138713080083169A
:1008AC00031381010B1183120313BD01BE016E2CC6
:1008BC00F2308100612C0B1D642C652C612C0B110A
:1008CC00013083120313BD070318BE0A0030BE07A4
:1008DC0071083E02031D742C70083D02031C772C1A
:1008EC00782C5E2C792C08000330831603138100BE
:1008FC000B1183120313BD01BE01942C52308100E5
:10090C00872C0B1D8A2C8B2C872C0B1101308312FE
:10091C000313BD070318BE0A0030BE0771083E0260
:10092C00031D9A2C70083D02031C9D2C9E2C842CBC
:10093C009F2C08008316031307150530831203132D
:10094C009700950196010C118316031387108312DF
:10095C000313871083160313071507128712071347
:10096C008713831203130712871207138713BF0110
:10097C00C001C301C401831603138810831203132F
:10098C0088100800831203130C1187140130F00037
:10099C000030F1000A128A1155240A128A118312AE
:1009AC00031387101330F0000030F1000A128A1183
:1009BC0055240A128A11E22C831203130C1DE72C06
:1009CC00E82CE22C0C1104309700C701C801002D53
:1009DC000230F0000030F1000A128A1155240A127C
:1009EC008A11013083120313C7070318C80A003099
:1009FC00C807002D0C19032D042D0F2D05304802AE
:100A0C00783003194702031C0C2D0D2DEE2C0F2DE5
:100A1C000F2D053097000C114808F301F307470818
:100A2C00F201F207192D08007308031D1E2D262D47
:100A3C00720871047004031D242D252D3C2D262DC8
:100A4C000030F0000030F1000030F200942D942DB5
:100A5C003C2D0130F5007508F30701300310F20C42
:100A6C00F10CF00CFF3E031D342D3C2DFE307205B5
:100A7C00031D412D422D2F2D5A2D5A2D0130F500DD
:100A8C007508F3070130F007003003180130F10747
:100A9C00003003180130F20701300310F20CF10C96
:100AAC00F00CFF3E031D532DFF307205031D5F2D0F
:100ABC00602D442D6D2D6D2D0130F302013003108E
:100ACC00F00DF10DF20DFF3E031D652D6D2DF11F87
:100ADC00702D712D622D7318742D752D7B2DFF309B
:100AEC00F0057F30F105FF30F2050310F30C7308AD
:100AFC00F500F601F70110300310F50DF60DF70DAA
:100B0C00FF3E031D822D7508F0047608F10477086A
:100B1C00F2047408031D932D942DF2170800780825
:100B2C0083120313A0007908A1007A08A200031015
:100B3C00210D220DA3002308A900A908031DA72D30
:100B4C00A82DB22D0030FB000030FA000030F90067
:100B5C000030F8003A2E3A2E7808A0007908A1004F
:100B6C007A08A20017300310A20CA10CA00CFF3EB7
:100B7C00031DB92D2008A3002308A400F917FF308A
:100B8C00F805FF30F9050030FA057808A50079085A
:100B9C00A6007A08A700A8018E30A902A91FD72D9C
:100BAC00D82DFD2D2908803A8F3E0318DE2DDF2D20
:100BBC00EA2D0030FB000030FA000030F900003064
:100BCC00F8003A2E3A2EEA2D01300310A80CA70C8F
:100BDC00A60CA50CFF3E031DEB2D0130A000200838
:100BEC00A907031DFA2DFB2DEA2D212E212E1830DD
:100BFC002902031C022E032E1A2E0030FB0000309B
:100C0C00FA000030F9000030F8003A2E3A2E1A2E75
:100C1C000130A0000310A50DA60DA70DA80DA00B6B
:100C2C00102E0130A9021A2EA908031D1E2E1F2EEC
:100C3C000E2E212E212E2408031D252E312EA50922
:100C4C00A609A709A809A50A0319A60A0319A70A40
:100C5C000319A80A312E2808FB002708FA002608D9
:100C6C00F9002508F8003A2E08000A128A11A0246F
:100C7C000A128A110A128A11C8240A128A117308DC
:100C8C0083120313C801C8077208C701C7074808B5
:100C9C00AB01AB074708AA01AA070A128A11F8236D
:100CAC000A128A11831203132A08B0002B08B10010
:100CBC002C08B2001430AD00AE30AE003E30AF00A8
:100CCC000A128A1112270A128A11831203132D0891
:100CDC00F8002E08F9002F08FA000A128A1195253F
:100CEC000A128A11790883120313C601C607780801
:100CFC00C501C507003046020E3003194502031C1E
:100D0C00882E892E922E0A128A11DE230A128A113B
:100D1C00831203138810042F00304002073003198C
:100D2C003F0203189A2E9B2EC72E0A128A11E52316
:100D3C000A128A118312031388141430F000003045
:100D4C00F1000A128A117A240A128A110F30F20069
:100D5C000030F3000A128A1113240A128A1114307B
:100D6C00F0000030F1000A128A117A240A128A115A
:100D7C00013083120313BF070318C00A0030C007E9
:100D8C00042F003044020D30031943020318CF2EF8
:100D9C00D02EFC2E0A128A11E5230A128A11831214
:100DAC00031388141430F0000030F1000A128A1179
:100DBC007A240A128A110F30F2000030F3000A1262
:100DCC008A1134240A128A111430F0000030F10018
:100DDC000A128A117A240A128A110130831203131F
:100DEC00C3070318C40A0030C407042F8814BF01BA
:100DFC00C001C301C401042F042F042F0A30F000DA
:100E0C000030F1000A128A117A240A128A11402E3B
:100E1C00402E0A128A110028831203132D08B300E6
:100E2C002E08B4002F08B5000310340D350DB60094
:100E3C003608B700B708031D242F252F2D2F00309F
:100E4C00AD000030AE000030AF00FF2FFF2F300898
:100E5C00B3003108B4003208B5000310340D350D61
:100E6C00B6003608BC00BC08031D3D2F3E2F462F94
:100E7C000030AD000030AE000030AF00FF2FFF2F70
:100E8C003C087B3EB3003308B7072D08B3002E088F
:100E9C00B4002F08B50010300310B50CB40CB30C13
:100EAC00FF3E031D522F3308B6003608BC00300835
:100EBC00B3003108B4003208B50010300310B50C83
:100ECC00B40CB30CFF3E031D642F3308B600360878
:100EDC00BC068030B3003308BC05AE17B117FF3029
:100EEC00B005FF30B1050030B2050030B80000305D
:100EFC00B9000030BA000730B3003308BB00862FAE
:100F0C002D1C892F8A2F9B2F3008B807310803110D
:100F1C000318310A0319932FB90732080311031868
:100F2C00320A03199A2FBA079B2F01300310AF0C0A
:100F3C00AE0CAD0CFF3E031D9C2F01300310B00D09
:100F4C00B10DB20DFF3E031DA42F0130BB02031DDA
:100F5C00B02FB12F862FB22F0930B3003308BB004E
:100F6C00B72F2D1CBA2FBB2FCC2F3008B807310848
:100F7C0003110318310A0319C42FB90732080311DE
:100F8C000318320A0319CB2FBA07CC2F01300310E8
:100F9C00AF0CAE0CAD0CFF3E031DCD2F013003107A
:100FAC00BA0CB90CB80CFF3E031DD52F0130BB0297
:100FBC00031DE12FE22FB72FE32F3808F00039087B
:100FCC00F1003A08F2003708B3003308F3003C088C
:100FDC00B4003408F4000A128A111A250A128A1174
:100FEC00700883120313AD007108AE007208AF00D5
:040FFC00FF2F0800BB
:00000001FF
